{
  "contractName": "Battleship",
  "abi": [
    {
      "anonymous": false,
      "inputs": [
        {
          "indexed": false,
          "internalType": "uint256",
          "name": "start_of_timeout",
          "type": "uint256"
        },
        {
          "indexed": false,
          "internalType": "address",
          "name": "reporter",
          "type": "address"
        }
      ],
      "name": "timeout",
      "type": "event"
    },
    {
      "inputs": [],
      "name": "store_bid",
      "outputs": [],
      "stateMutability": "payable",
      "type": "function",
      "payable": true
    },
    {
      "inputs": [
        {
          "internalType": "bytes32",
          "name": "merkle_root",
          "type": "bytes32"
        }
      ],
      "name": "store_board_commitment",
      "outputs": [],
      "stateMutability": "nonpayable",
      "type": "function"
    },
    {
      "inputs": [
        {
          "internalType": "bytes",
          "name": "opening_nonce",
          "type": "bytes"
        },
        {
          "internalType": "bytes32[]",
          "name": "proof",
          "type": "bytes32[]"
        },
        {
          "internalType": "uint256",
          "name": "guess_leaf_index",
          "type": "uint256"
        },
        {
          "internalType": "address",
          "name": "owner",
          "type": "address"
        }
      ],
      "name": "check_one_ship",
      "outputs": [
        {
          "internalType": "bool",
          "name": "result",
          "type": "bool"
        }
      ],
      "stateMutability": "nonpayable",
      "type": "function"
    },
    {
      "inputs": [],
      "name": "claim_win",
      "outputs": [],
      "stateMutability": "nonpayable",
      "type": "function"
    },
    {
      "inputs": [
        {
          "internalType": "address payable",
          "name": "opponent",
          "type": "address"
        }
      ],
      "name": "forfeit",
      "outputs": [],
      "stateMutability": "nonpayable",
      "type": "function"
    },
    {
      "inputs": [
        {
          "internalType": "bytes",
          "name": "opening_nonce",
          "type": "bytes"
        },
        {
          "internalType": "bytes32[]",
          "name": "proof",
          "type": "bytes32[]"
        },
        {
          "internalType": "uint256",
          "name": "guess_leaf_index",
          "type": "uint256"
        },
        {
          "internalType": "address",
          "name": "owner",
          "type": "address"
        }
      ],
      "name": "accuse_cheating",
      "outputs": [
        {
          "internalType": "bool",
          "name": "result",
          "type": "bool"
        }
      ],
      "stateMutability": "nonpayable",
      "type": "function"
    },
    {
      "inputs": [
        {
          "internalType": "address",
          "name": "opponent",
          "type": "address"
        }
      ],
      "name": "claim_opponent_left",
      "outputs": [],
      "stateMutability": "nonpayable",
      "type": "function"
    },
    {
      "inputs": [
        {
          "internalType": "address payable",
          "name": "opponent",
          "type": "address"
        }
      ],
      "name": "handle_timeout",
      "outputs": [],
      "stateMutability": "nonpayable",
      "type": "function"
    },
    {
      "inputs": [
        {
          "internalType": "address",
          "name": "opponent",
          "type": "address"
        }
      ],
      "name": "claim_timeout_winnings",
      "outputs": [],
      "stateMutability": "nonpayable",
      "type": "function"
    },
    {
      "inputs": [],
      "name": "is_game_over",
      "outputs": [
        {
          "internalType": "bool",
          "name": "",
          "type": "bool"
        }
      ],
      "stateMutability": "nonpayable",
      "type": "function"
    },
    {
      "inputs": [
        {
          "internalType": "bytes32",
          "name": "a",
          "type": "bytes32"
        },
        {
          "internalType": "bytes32",
          "name": "b",
          "type": "bytes32"
        }
      ],
      "name": "merge_bytes32",
      "outputs": [
        {
          "internalType": "bytes",
          "name": "",
          "type": "bytes"
        }
      ],
      "stateMutability": "pure",
      "type": "function",
      "constant": true
    },
    {
      "inputs": [
        {
          "internalType": "bytes",
          "name": "opening_nonce",
          "type": "bytes"
        },
        {
          "internalType": "bytes32[]",
          "name": "proof",
          "type": "bytes32[]"
        },
        {
          "internalType": "uint256",
          "name": "guess_leaf_index",
          "type": "uint256"
        },
        {
          "internalType": "bytes32",
          "name": "commit",
          "type": "bytes32"
        }
      ],
      "name": "verify_opening",
      "outputs": [
        {
          "internalType": "bool",
          "name": "result",
          "type": "bool"
        }
      ],
      "stateMutability": "view",
      "type": "function",
      "constant": true
    }
  ],
  "bytecode": "0x60806040526040518060400160405280600781526020017f706f766f646e61000000000000000000000000000000000000000000000000008152506000908051906020019062000051929190620000bc565b506001600460006101000a81548160ff0219169083151502179055506000600b60006101000a81548160ff0219169083151502179055506000600b60016101000a81548160ff0219169083151502179055506000600c55348015620000b557600080fd5b506200016b565b828054600181600116156101000203166002900490600052602060002090601f016020900481019282601f10620000ff57805160ff191683800117855562000130565b8280016001018555821562000130579182015b828111156200012f57825182559160200191906001019062000112565b5b5090506200013f919062000143565b5090565b6200016891905b80821115620001645760008160009055506001016200014a565b5090565b90565b61182f806200017b6000396000f3fe6080604052600436106100a75760003560e01c8063a2c66df111610064578063a2c66df114610502578063a88f4db514610553578063b62829b91461058e578063deffa9671461072c578063f33bd1941461077d578063f66e88b1146107ac576100a7565b80630868d16b146100ac57806345f203b1146100c35780634ea0e9d4146100cd57806350a04b451461018b5780636cf399fa14610313578063a1fe3953146104b1575b600080fd5b3480156100b857600080fd5b506100c16107fd565b005b6100cb610c17565b005b3480156100d957600080fd5b50610110600480360360408110156100f057600080fd5b810190808035906020019092919080359060200190929190505050610cea565b6040518080602001828103825283818151815260200191508051906020019080838360005b83811015610150578082015181840152602081019050610135565b50505050905090810190601f16801561017d5780820380516001836020036101000a031916815260200191505b509250505060405180910390f35b34801561019757600080fd5b506102f9600480360360808110156101ae57600080fd5b81019080803590602001906401000000008111156101cb57600080fd5b8201836020820111156101dd57600080fd5b803590602001918460018302840111640100000000831117156101ff57600080fd5b91908080601f016020809104026020016040519081016040528093929190818152602001838380828437600081840152601f19601f8201169050808301925050505050505091929192908035906020019064010000000081111561026257600080fd5b82018360208201111561027457600080fd5b8035906020019184602083028401116401000000008311171561029657600080fd5b919080806020026020016040519081016040528093929190818152602001838360200280828437600081840152601f19601f8201169050808301925050505050505091929192908035906020019092919080359060200190929190505050610d51565b604051808215151515815260200191505060405180910390f35b34801561031f57600080fd5b506104976004803603608081101561033657600080fd5b810190808035906020019064010000000081111561035357600080fd5b82018360208201111561036557600080fd5b8035906020019184600183028401116401000000008311171561038757600080fd5b91908080601f016020809104026020016040519081016040528093929190818152602001838380828437600081840152601f19601f820116905080830192505050505050509192919290803590602001906401000000008111156103ea57600080fd5b8201836020820111156103fc57600080fd5b8035906020019184602083028401116401000000008311171561041e57600080fd5b919080806020026020016040519081016040528093929190818152602001838360200280828437600081840152601f19601f82011690508083019250505050505050919291929080359060200190929190803573ffffffffffffffffffffffffffffffffffffffff169060200190929190505050610e7a565b604051808215151515815260200191505060405180910390f35b3480156104bd57600080fd5b50610500600480360360208110156104d457600080fd5b81019080803573ffffffffffffffffffffffffffffffffffffffff169060200190929190505050610f99565b005b34801561050e57600080fd5b506105516004803603602081101561052557600080fd5b81019080803573ffffffffffffffffffffffffffffffffffffffff169060200190929190505050611051565b005b34801561055f57600080fd5b5061058c6004803603602081101561057657600080fd5b81019080803590602001909291905050506110d1565b005b34801561059a57600080fd5b50610712600480360360808110156105b157600080fd5b81019080803590602001906401000000008111156105ce57600080fd5b8201836020820111156105e057600080fd5b8035906020019184600183028401116401000000008311171561060257600080fd5b91908080601f016020809104026020016040519081016040528093929190818152602001838380828437600081840152601f19601f8201169050808301925050505050505091929192908035906020019064010000000081111561066557600080fd5b82018360208201111561067757600080fd5b8035906020019184602083028401116401000000008311171561069957600080fd5b919080806020026020016040519081016040528093929190818152602001838360200280828437600081840152601f19601f82011690508083019250505050505050919291929080359060200190929190803573ffffffffffffffffffffffffffffffffffffffff1690602001909291905050506110fd565b604051808215151515815260200191505060405180910390f35b34801561073857600080fd5b5061077b6004803603602081101561074f57600080fd5b81019080803573ffffffffffffffffffffffffffffffffffffffff1690602001909291905050506113a5565b005b34801561078957600080fd5b5061079261146b565b604051808215151515815260200191505060405180910390f35b3480156107b857600080fd5b506107fb600480360360208110156107cf57600080fd5b81019080803573ffffffffffffffffffffffffffffffffffffffff169060200190929190505050611483565b005b600260008154811061080b57fe5b9060005260206000200160009054906101000a900473ffffffffffffffffffffffffffffffffffffffff1673ffffffffffffffffffffffffffffffffffffffff163373ffffffffffffffffffffffffffffffffffffffff1614156109ee57600a6005805490501415806108845750600a60078054905014155b1561088e57610c15565b60008090505b6005805490508110156108ed5760001515600582815481106108b257fe5b90600052602060002090602091828204019190069054906101000a900460ff16151514156108e05750610c15565b8080600101915050610894565b5060008090505b60078054905081101561094d57600015156007828154811061091257fe5b90600052602060002090602091828204019190069054906101000a900460ff16151514156109405750610c15565b80806001019150506108f4565b506040518060400160405280600c81526020017f6a6520746f206872616320310000000000000000000000000000000000000000815250600a90805190602001906109999291906115b8565b503373ffffffffffffffffffffffffffffffffffffffff166108fc479081150290604051600060405180830381858888f193505050501580156109e0573d6000803e3d6000fd5b506109e96114d5565b610c14565b60026001815481106109fc57fe5b9060005260206000200160009054906101000a900473ffffffffffffffffffffffffffffffffffffffff1673ffffffffffffffffffffffffffffffffffffffff163373ffffffffffffffffffffffffffffffffffffffff161415610c1357600a600680549050141580610a755750600a60088054905014155b15610a7f57610c15565b60008090505b600680549050811015610ade576000151560068281548110610aa357fe5b90600052602060002090602091828204019190069054906101000a900460ff1615151415610ad15750610c15565b8080600101915050610a85565b5060008090505b600880549050811015610b3e576000151560088281548110610b0357fe5b90600052602060002090602091828204019190069054906101000a900460ff1615151415610b315750610c15565b8080600101915050610ae5565b506040518060400160405280600c81526020017f6a6520746f206872616320320000000000000000000000000000000000000000815250600a9080519060200190610b8a9291906115b8565b506002600181548110610b9957fe5b9060005260206000200160009054906101000a900473ffffffffffffffffffffffffffffffffffffffff1673ffffffffffffffffffffffffffffffffffffffff166108fc479081150290604051600060405180830381858888f19350505050158015610c09573d6000803e3d6000fd5b50610c126114d5565b5b5b5b565b6001600460006101000a81548160ff0219169083151502179055506002339080600181540180825580915050600190039060005260206000200160009091909190916101000a81548173ffffffffffffffffffffffffffffffffffffffff021916908373ffffffffffffffffffffffffffffffffffffffff160217905550346001819055506040518060400160405280600d81526020017f757a206a652074616d20696e610000000000000000000000000000000000000081525060009080519060200190610ce79291906115b8565b50565b606080604067ffffffffffffffff81118015610d0557600080fd5b506040519080825280601f01601f191660200182016040528015610d385781602001600182028036833780820191505090505b5090508360208201528260408201528091505092915050565b600080858051906020012090506000849050600080905060008090505b8751821015610e695760008160020a8481610d8557fe5b049050600060028281610d9457fe5b069050600060018460020a60018660020a6006800263ffffffff16010381610db857fe5b04039050600060026001840181610dcb57fe5b06838503019050848060010195505081811115610deb5750505050610d6e565b600060028481610df757fe5b061415610e3157610e1b888d8881518110610e0e57fe5b6020026020010151610cea565b8051906020012097508580600101965050610e60565b610e4e8c8781518110610e4057fe5b602002602001015189610cea565b80519060200120975085806001019650505b50505050610d6e565b858414945050505050949350505050565b6000806002600081548110610e8b57fe5b9060005260206000200160009054906101000a900473ffffffffffffffffffffffffffffffffffffffff1673ffffffffffffffffffffffffffffffffffffffff168373ffffffffffffffffffffffffffffffffffffffff161415610f09576003600181548110610ef757fe5b90600052602060002001549050610f25565b6003600081548110610f1757fe5b906000526020600020015490505b6000610f3387878785610d51565b1590508015610f8c573373ffffffffffffffffffffffffffffffffffffffff166108fc479081150290604051600060405180830381858888f19350505050158015610f82573d6000803e3d6000fd5b50610f8b6114d5565b5b8092505050949350505050565b42600c8190555080600d60006101000a81548173ffffffffffffffffffffffffffffffffffffffff021916908373ffffffffffffffffffffffffffffffffffffffff1602179055507f6999852f0fd8d46aef010324e5e0c924343854d627d6a5231ed0b799d36db567600c5433604051808381526020018273ffffffffffffffffffffffffffffffffffffffff1673ffffffffffffffffffffffffffffffffffffffff1681526020019250505060405180910390a150565b3373ffffffffffffffffffffffffffffffffffffffff16600d60009054906101000a900473ffffffffffffffffffffffffffffffffffffffff1673ffffffffffffffffffffffffffffffffffffffff1614156110ce576000600c54141580156110bf5750603c600c54014211155b156110cd576000600c819055505b5b50565b600381908060018154018082558091505060019003906000526020600020016000909190919091505550565b600080600260008154811061110e57fe5b9060005260206000200160009054906101000a900473ffffffffffffffffffffffffffffffffffffffff1673ffffffffffffffffffffffffffffffffffffffff163373ffffffffffffffffffffffffffffffffffffffff16141561127f578273ffffffffffffffffffffffffffffffffffffffff163373ffffffffffffffffffffffffffffffffffffffff16141561120f5760036000815481106111ae57fe5b9060005260206000200154905060056111c987878785610d51565b90806001815401808255809150506001900390600052602060002090602091828204019190069091909190916101000a81548160ff02191690831515021790555061127a565b600360018154811061121d57fe5b90600052602060002001549050600761123887878785610d51565b90806001815401808255809150506001900390600052602060002090602091828204019190069091909190916101000a81548160ff0219169083151502179055505b61138e565b8273ffffffffffffffffffffffffffffffffffffffff163373ffffffffffffffffffffffffffffffffffffffff1614156113225760036001815481106112c157fe5b9060005260206000200154905060066112dc87878785610d51565b90806001815401808255809150506001900390600052602060002090602091828204019190069091909190916101000a81548160ff02191690831515021790555061138d565b600360008154811061133057fe5b90600052602060002001549050600861134b87878785610d51565b90806001815401808255809150506001900390600052602060002090602091828204019190069091909190916101000a81548160ff0219169083151502179055505b5b61139a86868684610d51565b915050949350505050565b8073ffffffffffffffffffffffffffffffffffffffff16600d60009054906101000a900473ffffffffffffffffffffffffffffffffffffffff1673ffffffffffffffffffffffffffffffffffffffff161415611468576000600c54141580156114125750603c600c540142115b15611467573373ffffffffffffffffffffffffffffffffffffffff166108fc479081150290604051600060405180830381858888f1935050505015801561145d573d6000803e3d6000fd5b506114666114d5565b5b5b50565b6000600460009054906101000a900460ff1615905090565b8073ffffffffffffffffffffffffffffffffffffffff166108fc479081150290604051600060405180830381858888f193505050501580156114c9573d6000803e3d6000fd5b506114d26114d5565b50565b6040518060400160405280600781526020017f706f766f646e6100000000000000000000000000000000000000000000000000815250600090805190602001906115209291906115b8565b506000600181905550600e600290805461153b929190611638565b50600f600390805461154e92919061168a565b506000600460006101000a81548160ff0219169083151502179055506009600590805461157c9291906116dc565b506009600690805461158f9291906116dc565b50600960079080546115a29291906116dc565b50600960089080546115b59291906116dc565b50565b828054600181600116156101000203166002900490600052602060002090601f016020900481019282601f106115f957805160ff1916838001178555611627565b82800160010185558215611627579182015b8281111561162657825182559160200191906001019061160b565b5b509050611634919061173c565b5090565b8280548282559060005260206000209081019282156116795760005260206000209182015b8281111561167857825482559160010191906001019061165d565b5b5090506116869190611761565b5090565b8280548282559060005260206000209081019282156116cb5760005260206000209182015b828111156116ca5782548255916001019190600101906116af565b5b5090506116d891906117a4565b5090565b82805482825590600052602060002090601f0160209004810192821561172b57600052602060002091601f016020900482015b8281111561172a57825482559160010191906001019061170f565b5b50905061173891906117c9565b5090565b61175e91905b8082111561175a576000816000905550600101611742565b5090565b90565b6117a191905b8082111561179d57600081816101000a81549073ffffffffffffffffffffffffffffffffffffffff021916905550600101611767565b5090565b90565b6117c691905b808211156117c25760008160009055506001016117aa565b5090565b90565b6117f691905b808211156117f257600081816101000a81549060ff0219169055506001016117cf565b5090565b9056fea264697066735822122082a9cc752236319172ee81812c265f78f2f8014d54f407d8df999f9c0295dedc64736f6c63430006060033",
  "immutableReferences": {},
  "source": "// SPDX-License-Identifier: MIT\npragma solidity >=0.4.22 <0.7.0;\n\nimport \"./ECDSA.sol\";\n\n\ncontract Battleship {\n    using ECDSA for bytes32;\n    uint32 constant BOARD_LEN = 6;\n\n    string skusam = \"povodna\";\n\n\n    uint256 bet;\n    address[] players;\n    bytes32[] initial_states; // on position 0 is fisrt player on position \n    bool is_game_running = true;\n\n    bool[] first_player_winning_moves;\n    bool[] second_player_winning_moves;\n\n    bool[] first_player_hitted_ships;\n    bool[] second_player_hitted_ships;\n\n    bool[] array_to_reset;\n\n    string winner;\n\n    bool player1_leaved = false;\n    bool player2_leaved = false;\n\n    uint start_of_timeout = 0;\n    address player_accused_for_timeout;\n\n\n    event timeout(uint start_of_timeout, address reporter);\n    \n\n    // Declare state variables here.\n    // Consider keeping state for:\n    // - player addresses\n    // - whether the game is over\n    // - board commitments\n    // - whether a player has proven 10 winning moves\n    // - whether a player has proven their own board had 10 ships\n\n    // Declare events here.\n    // Consider triggering an event upon accusing another player of having left.\n\n    // Store the bids of each player\n    // Start the game when both bids are received\n    // The first player to call the function determines the bid amount.\n    // Refund excess bids to the second player if they bid too much.\n    function store_bid() public payable{\n\n    is_game_running = true;\n    players.push(msg.sender);\n    //control bet if player one set too high\n    bet = msg.value;\n\n\n    skusam = \"uz je tam ina\";\n    }\n\n    address[] players2;\n    bytes32[] initial_states2;\n\n    // Clear state - make sure to set that the game is not in session\n    function clear_state() internal {\n        skusam = \"povodna\";\n        bet = 0;\n        players = players2;\n        initial_states = initial_states2;\n        is_game_running = false;\n        \n        first_player_winning_moves = array_to_reset;\n        second_player_winning_moves = array_to_reset;\n        \n        first_player_hitted_ships = array_to_reset;\n        second_player_hitted_ships = array_to_reset;\n\n    }\n\n    // Store the initial board commitments of each player\n    // Note that merkle_root is the hash of the topmost value of the merkle tree\n    function store_board_commitment(bytes32 merkle_root) public {\n        initial_states.push(merkle_root);\n    }\n\n    // Verify the placement of one ship on a board\n    // opening_nonce - corresponds to web3.utils.fromAscii(JSON.stringify(opening) + JSON.stringify(nonce)) in JS\n    // proof - a list of sha256 hashes you can get from get_proof_for_board_guess\n    // guess_leaf_index - the index of the guess as a leaf in the merkle tree\n    // owner - the address of the owner of the board on which this ship lives\n    function check_one_ship(bytes memory opening_nonce, bytes32[] memory proof,\n        uint256 guess_leaf_index, address owner) public returns (bool result) {\n        bytes32 commit;\n        //check player one\n        if(msg.sender == players[0]){\n            //sending his own ships\n            if(msg.sender == owner){\n            commit = initial_states[0];\n            first_player_winning_moves.push(verify_opening(opening_nonce, proof, guess_leaf_index, commit));\n            }\n            else{\n                commit = initial_states[1];\n                first_player_hitted_ships.push(verify_opening(opening_nonce, proof, guess_leaf_index, commit));\n            }\n        }\n        // check for player two\n        else{\n             //sending his own ships\n            if(msg.sender == owner){\n                commit = initial_states[1];\n                second_player_winning_moves.push(verify_opening(opening_nonce, proof, guess_leaf_index, commit));\n            }else{\n                commit = initial_states[0];\n                second_player_hitted_ships.push(verify_opening(opening_nonce, proof, guess_leaf_index, commit));\n            }\n        }    \n        \n        return verify_opening(opening_nonce, proof, guess_leaf_index, commit);\n    }\n\n    // Claim you won the game\n    // If you have checked 10 winning moves (hits) AND you have checked\n    // 10 of your own ship placements with the contract, then this function\n    // should transfer winning funds to you and end the game.\n    function claim_win() public {\n        if(msg.sender == players[0]){\n            //check if players 1 has 10 proven ships and 10 proven hits, then send him bet*2\n            if(first_player_winning_moves.length != 10 || first_player_hitted_ships.length != 10) {return;}\n\n            for (uint i = 0; i < first_player_winning_moves.length; i++) {\n                if(first_player_winning_moves[i] == false){\n                    return;\n                }\n            }\n\n            for (uint j = 0; j < first_player_hitted_ships.length; j++) {\n                if(first_player_hitted_ships[j] == false){\n                    return;\n                }\n            }\n\n            winner = \"je to hrac 1\";    \n            msg.sender.transfer(address(this).balance); \n              clear_state(); \n        }\n        else if(msg.sender == players[1]){\n            //check if players 1 has 10 proven ships and 10 proven hits, then send him bet*2\n\n            if(second_player_winning_moves.length != 10 || second_player_hitted_ships.length != 10) {return;}\n\n            for (uint i = 0; i < second_player_winning_moves.length; i++) {\n                if(second_player_winning_moves[i] == false){            \n                    return;\n                }\n            }\n\n            for (uint j = 0; j < second_player_hitted_ships.length; j++) {\n                if(second_player_hitted_ships[j] == false){        \n                    return;\n                }\n            }\n\n            winner = \"je to hrac 2\";\n            payable(players[1]).transfer(address(this).balance);\n             clear_state();\n        }\n    }\n\n\n    // Forfeit the game\n    // Regardless of cheating, board state, or any other conditions, this function\n    // results in all funds being sent to the opponent and the game being over.\n    function forfeit(address payable opponent) public {\n        // bet *2 because i need to send him his bet and opponents bet\n        opponent.transfer(address(this).balance);\n        clear_state();\n    }\n\n    // Claim the opponent cheated - if true, you win.\n    // opening_nonce - corresponds to web3.utils.fromAscii(JSON.stringify(opening) + JSON.stringify(nonce)) in JS\n    // proof - a list of sha256 hashes you can get from get_proof_for_board_guess (this is what the sender believes to be a lie)\n    // guess_leaf_index - the index of the guess as a leaf in the merkle tree\n    // owner - the address of the owner of the board on which this ship lives\n    function accuse_cheating(bytes memory opening_nonce, bytes32[] memory proof,\n        uint256 guess_leaf_index, address owner) public returns (bool result) {\n        bytes32 commit;\n        // control his tree so i need his root\n        if(owner == players[0]){\n            commit = initial_states[1];\n        }\n        else{\n            commit = initial_states[0];\n        }\n        // verify return if his move was clean, if true then he is not cheteaded that why we need to negate it\n        bool cheated = !verify_opening(opening_nonce, proof, guess_leaf_index, commit);\n        //send sender bet becasause other player cheated\n        if(cheated) {\n            msg.sender.transfer(address(this).balance);\n            clear_state();\n        }\n        return cheated;\n    }\n\n    // Claim the opponent of taking too long/leaving\n    // Trigger an event that both players should listen for.\n    function claim_opponent_left(address opponent) public {\n       start_of_timeout = block.timestamp;\n        player_accused_for_timeout = payable(opponent);\n        emit timeout(start_of_timeout, msg.sender);\n    }\n\n    // Handle a timeout accusation - msg.sender is the accused party.\n    // If less than 1 minute has passed, then set state appropriately to prevent distribution of winnings.\n    // Otherwise, do nothing.\n    function handle_timeout(address payable opponent) public {\n        // if guy who accued other is opponent then i set timeout to 0 because i am in game\n        if(player_accused_for_timeout == msg.sender){\n            if (start_of_timeout != 0 && now <= start_of_timeout + 60) {\n                start_of_timeout = 0;\n            }\n        }\n    }\n\n    // Claim winnings if opponent took too long/stopped responding after claim_opponent_left\n    // The player MUST claim winnings. The opponent failing to handle the timeout on their end should not\n    // result in the game being over. If the timer has not run out, do nothing.\n    function claim_timeout_winnings(address opponent) public {\n        // TODO\n        // opponet cannot trigger winning\n        if(player_accused_for_timeout == opponent){\n        if (start_of_timeout != 0 && now > start_of_timeout + 60) {\n            msg.sender.transfer(address(this).balance);\n            clear_state();\n            }\n        }\n    }\n\n    // Check if game is over\n    // Hint - use a state variable for this, so you can call it from JS.\n    // Note - you cannot use the return values of functions that change state in JS.\n    function is_game_over() public returns (bool) {\n        return !is_game_running;\n    }\n\n    /**** Helper Functions below this point. Do not modify. ****/\n    /***********************************************************/\n\n    function merge_bytes32(bytes32 a, bytes32 b) pure public returns (bytes memory) {\n        bytes memory result = new bytes(64);\n        assembly {\n            mstore(add(result, 32), a)\n            mstore(add(result, 64), b)\n        }\n        return result;\n    }\n\n    // Verify the proof of a single spot on a single board\n    // \\args:\n    //      opening_nonce - corresponds to web3.utils.fromAscii(JSON.stringify(opening) + JSON.stringify(nonce)));\n    //      proof - list of sha256 hashes that correspond to output from get_proof_for_board_guess()\n    //      guess - [i, j] - guess that opening corresponds to\n    //      commit - merkle root of the board\n    function verify_opening(bytes memory opening_nonce, bytes32[] memory proof, uint guess_leaf_index, bytes32 commit) public view returns (bool result) {\n        bytes32 curr_commit = keccak256(opening_nonce); // see if this changes hash\n        uint index_in_leaves = guess_leaf_index;\n\n        uint curr_proof_index = 0;\n        uint i = 0;\n\n        while (curr_proof_index < proof.length) {\n            // index of which group the guess is in for the current level of Merkle tree\n            // (equivalent to index of parent in next level of Merkle tree)\n            uint group_in_level_of_merkle = index_in_leaves / (2**i);\n            // index in Merkle group in (0, 1)\n            uint index_in_group = group_in_level_of_merkle % 2;\n            // max node index for currrent Merkle level\n            uint max_node_index = ((BOARD_LEN * BOARD_LEN + (2**i) - 1) / (2**i)) - 1;\n            // index of sibling of curr_commit\n            uint sibling = group_in_level_of_merkle - index_in_group + (index_in_group + 1) % 2;\n            i++;\n            if (sibling > max_node_index) continue;\n            if (index_in_group % 2 == 0) {\n                curr_commit = keccak256(merge_bytes32(curr_commit, proof[curr_proof_index]));\n                curr_proof_index++;\n            } else {\n                curr_commit = keccak256(merge_bytes32(proof[curr_proof_index], curr_commit));\n                curr_proof_index++;\n            }\n        }\n        return (curr_commit == commit);\n\n    }\n}\n",
  "sourcePath": "/home/roman/Skola/6semester/DMBLOCK/Zadanie_2/Zadanie 2/kody/contracts/contract_starter.sol",
  "compiler": {
    "name": "solc",
    "version": "0.6.6+commit.6c089d02.Emscripten.clang"
  },
  "schemaVersion": "3.4.5",
  "updatedAt": "2022-04-10T09:31:04.843Z",
  "networkType": "ethereum",
  "devdoc": {
    "methods": {}
  },
  "userdoc": {
    "methods": {
      "merge_bytes32(bytes32,bytes32)": {
        "notice": "********************************************************"
      }
    }
  }
}